{
  "abi": [
    {
      "inputs": [
        {
          "internalType": "uint256",
          "name": "_counter",
          "type": "uint256"
        }
      ],
      "stateMutability": "nonpayable",
      "type": "constructor"
    },
    {
      "anonymous": false,
      "inputs": [
        {
          "indexed": true,
          "internalType": "uint256",
          "name": "oldCounter",
          "type": "uint256"
        },
        {
          "indexed": true,
          "internalType": "uint256",
          "name": "newCounter",
          "type": "uint256"
        },
        {
          "indexed": false,
          "internalType": "address",
          "name": "sender",
          "type": "address"
        }
      ],
      "name": "counterEvent",
      "type": "event"
    },
    {
      "inputs": [],
      "name": "addCounter",
      "outputs": [],
      "stateMutability": "nonpayable",
      "type": "function"
    },
    {
      "inputs": [],
      "name": "retrieve",
      "outputs": [
        {
          "internalType": "uint256",
          "name": "",
          "type": "uint256"
        }
      ],
      "stateMutability": "view",
      "type": "function"
    },
    {
      "inputs": [
        {
          "internalType": "uint256",
          "name": "_counter",
          "type": "uint256"
        }
      ],
      "name": "setCounter",
      "outputs": [],
      "stateMutability": "nonpayable",
      "type": "function"
    }
  ],
  "bytecode": "608060405234801561001057600080fd5b5060405161021f38038061021f83398101604081905261002f9161006f565b60405133815281906000907f4a67b1b0b1ca1abc66b6eaa2430fd25c7d6e32faacbf9d913d609c96e9ff2dc79060200160405180910390a3600055610088565b60006020828403121561008157600080fd5b5051919050565b610188806100976000396000f3fe608060405234801561001057600080fd5b50600436106100415760003560e01c806308615e55146100465780632e64cec1146100505780638bb5d9c314610065575b600080fd5b61004e610078565b005b60005460405190815260200160405180910390f35b61004e610073366004610113565b6100d5565b60005461008690600161012c565b6000546040513381527f4a67b1b0b1ca1abc66b6eaa2430fd25c7d6e32faacbf9d913d609c96e9ff2dc79060200160405180910390a360016000808282546100ce919061012c565b9091555050565b6000546040513381528291907f4a67b1b0b1ca1abc66b6eaa2430fd25c7d6e32faacbf9d913d609c96e9ff2dc79060200160405180910390a3600055565b60006020828403121561012557600080fd5b5035919050565b6000821982111561014d57634e487b7160e01b600052601160045260246000fd5b50019056fea264697066735822122001d952b7ef520a543ad75bbabaa0653b84c0aa1846b3859329aaa254306413e864736f6c634300080e0033",
  "bytecodeSha1": "018fe32df73b4c11aaf2ecb023b38d0469a13b90",
  "compiler": {
    "evm_version": "istanbul",
    "optimizer": {
      "enabled": true,
      "runs": 200
    },
    "version": "0.8.14+commit.80d49f37"
  },
  "contractName": "Counter",
  "language": "Solidity",
  "natspec": {
    "kind": "dev",
    "methods": {},
    "version": 1
  },
  "opcodes": "PUSH1 0x80 PUSH1 0x40 MSTORE CALLVALUE DUP1 ISZERO PUSH2 0x10 JUMPI PUSH1 0x0 DUP1 REVERT JUMPDEST POP PUSH1 0x4 CALLDATASIZE LT PUSH2 0x41 JUMPI PUSH1 0x0 CALLDATALOAD PUSH1 0xE0 SHR DUP1 PUSH4 0x8615E55 EQ PUSH2 0x46 JUMPI DUP1 PUSH4 0x2E64CEC1 EQ PUSH2 0x50 JUMPI DUP1 PUSH4 0x8BB5D9C3 EQ PUSH2 0x65 JUMPI JUMPDEST PUSH1 0x0 DUP1 REVERT JUMPDEST PUSH2 0x4E PUSH2 0x78 JUMP JUMPDEST STOP JUMPDEST PUSH1 0x0 SLOAD PUSH1 0x40 MLOAD SWAP1 DUP2 MSTORE PUSH1 0x20 ADD PUSH1 0x40 MLOAD DUP1 SWAP2 SUB SWAP1 RETURN JUMPDEST PUSH2 0x4E PUSH2 0x73 CALLDATASIZE PUSH1 0x4 PUSH2 0x113 JUMP JUMPDEST PUSH2 0xD5 JUMP JUMPDEST PUSH1 0x0 SLOAD PUSH2 0x86 SWAP1 PUSH1 0x1 PUSH2 0x12C JUMP JUMPDEST PUSH1 0x0 SLOAD PUSH1 0x40 MLOAD CALLER DUP2 MSTORE PUSH32 0x4A67B1B0B1CA1ABC66B6EAA2430FD25C7D6E32FAACBF9D913D609C96E9FF2DC7 SWAP1 PUSH1 0x20 ADD PUSH1 0x40 MLOAD DUP1 SWAP2 SUB SWAP1 LOG3 PUSH1 0x1 PUSH1 0x0 DUP1 DUP3 DUP3 SLOAD PUSH2 0xCE SWAP2 SWAP1 PUSH2 0x12C JUMP JUMPDEST SWAP1 SWAP2 SSTORE POP POP JUMP JUMPDEST PUSH1 0x0 SLOAD PUSH1 0x40 MLOAD CALLER DUP2 MSTORE DUP3 SWAP2 SWAP1 PUSH32 0x4A67B1B0B1CA1ABC66B6EAA2430FD25C7D6E32FAACBF9D913D609C96E9FF2DC7 SWAP1 PUSH1 0x20 ADD PUSH1 0x40 MLOAD DUP1 SWAP2 SUB SWAP1 LOG3 PUSH1 0x0 SSTORE JUMP JUMPDEST PUSH1 0x0 PUSH1 0x20 DUP3 DUP5 SUB SLT ISZERO PUSH2 0x125 JUMPI PUSH1 0x0 DUP1 REVERT JUMPDEST POP CALLDATALOAD SWAP2 SWAP1 POP JUMP JUMPDEST PUSH1 0x0 DUP3 NOT DUP3 GT ISZERO PUSH2 0x14D JUMPI PUSH4 0x4E487B71 PUSH1 0xE0 SHL PUSH1 0x0 MSTORE PUSH1 0x11 PUSH1 0x4 MSTORE PUSH1 0x24 PUSH1 0x0 REVERT JUMPDEST POP ADD SWAP1 JUMP INVALID LOG2 PUSH5 0x6970667358 0x22 SLT KECCAK256 ADD 0xD9 MSTORE 0xB7 0xEF MSTORE EXP SLOAD GASPRICE 0xD7 JUMPDEST 0xBA 0xBA LOG0 PUSH6 0x3B84C0AA1846 0xB3 DUP6 SWAP4 0x29 0xAA LOG2 SLOAD ADDRESS PUSH5 0x13E864736F PUSH13 0x634300080E0033000000000000 ",
  "sha1": "122546feaa03930ffb7486f41a519f8a17702119",
  "source": "//SPDX-License-Identifier: Unlicense\npragma solidity ^0.8.7;\n\ncontract Counter {\n    uint private counter;\n\n    event counterEvent(\n        uint indexed oldCounter,\n        uint indexed newCounter,\n        address sender\n    );\n\n    constructor(uint  _counter) {\n        emit counterEvent(\n            0,\n            _counter,\n            msg.sender\n        );\n        counter = _counter;\n    }\n\n    function retrieve() public view returns (uint) {\n        return counter;\n    }\n\n    function setCounter(uint _counter) public {\n        emit counterEvent(\n            counter,\n            _counter,\n            msg.sender\n        );\n        counter = _counter;\n    }\n\n    function addCounter() public {\n        emit counterEvent(\n            counter,\n            counter+1,\n            msg.sender\n        );\n        counter += 1;\n    }\n}\n",
  "sourcePath": "contracts/Counter.sol",
  "type": "contract"
}